:03000000020006F5
:09005F00752100752B00752C00C1
:0300740002000384
:0300030002042ACA
:10007700758201120458AE217F008E828F83A3758B
:100087000B088F0C120CFDAE828E21221207B7AF20
:10009700827D007E00ED2DFBEE33FC8B828C83C0CE
:1000A70007C006C005C004C0031209ECAA82D0032A
:1000B700D0048B828C83A3C0021209ECAC82D002DD
:1000C700D005D006D007C3EA9C5030C3EF9A40153D
:1000D700EF9C50118DF005F07404800225E0D5F0F7
:1000E700FB429080448DF005F07404800225E0D532
:1000F700F0FBFB74FFC39B5290802EC3EF9C400420
:10010700EF9A40118DF005F07404800225E0D5F0D8
:10011700FB429080148DF005F07404800225E0D531
:10012700F0FBFC74FFC39C52900DBD00010EC3EDA4
:100137009403EE64809480500302009C22758280B1
:1001470012045890002275F0401209699000227538
:10015700F0401204FE120635AE82AF83BE0506BF1D
:10016700000302007722AE82AF83BE0005BF000204
:100177008010BE0105BF0002800BBE020EBF000B40
:100187008006020B37020BB4020C2A22AE2B7F002B
:10019700750B038F0C8E828F83120CFDAE828E2B14
:1001A700AE2C7F008E828F83A3750B088F0C120CE9
:1001B700FDAE828E2C120635AE82AF83758280C06B
:1001C70007C006120458900D6F75F0801204FE7573
:1001D70082C012045890002D75F040120969D006AC
:1001E700D007E52C24FC5028852B0B750C009000BC
:1001F70003C007C006120C77AC82D006D007EC24E8
:100207002DF8762DE52B75F003A404242DF8762D13
:1002170090002D75F040C007C0061204FED006D02E
:1002270007BE0105BF0002801EBE0305BF00028096
:1002370010BE0505BF0002801DBE0626BF00238035
:1002470018E52B04F52B22AE2B7F008E828F8312AD
:10025700016D752C00220200777582011204587512
:10026700210022AF82753E50753F6F75407775410B
:100277006575427275432075445875452075465318
:10028700754774754861754972754A74754B007581
:100297004C00754D00754E00754F5075506F755178
:1002A7007775526575537275542075555875562074
:1002B70075575375587475596F755A70755B007516
:1002C7005C00755D00755E00755F00C0071206353E
:1002D700858236858337532B01AB2C7C008B828C30
:1002E70083A3750B208C0C120CFDAB82D0078B2CD3
:1002F7008F047F00EC24FFFAEF34FFFB750B028FAE
:100307000C8A828B83C007C004C003C002120D335E
:10031700AD8274312DF54474302DF55575828012F8
:100327000458D002D003750B02750C008A828B83A8
:10033700120CFDE5828583F0D004D00745F06013E9
:1003470090003E75F040C007C0041204FED004D0F0
:1003570007801190004F75F040C007C0041204FEDB
:10036700D004D0077582C0C007C004120458D00457
:10037700D007EC24FEF582EF34FFF58375743875EA
:100387007500757640C007C004120A01D004D00773
:10039700E52C24F05028852B0B750C00900003C02A
:1003A70007C004120C77AD82D004D007ED2438F8CB
:1003B700762DE52B75F003A4042438F8762D9000EC
:1003C7003875F040C007C0041204FED004D007748B
:1003D70001B5360614B5370280287403B53606E42E
:1003E700B5370280177405B53606E4B5370280269F
:1003F7007406B53606E4B53702801E22E52B04F5F0
:100407002B22EC24FEF582EF34FFF583852B711246
:10041700097E752C00220200777582011204587537
:10042700210022120499120697120093E4B52102C3
:1004370080077401B52112800812079C12014480BD
:10044700E812079C12019380E085218212026A80DC
:01045700D8CC
:0A0D6F0053657420486F75723A0056
:10045800AF82E5A0540FFE74F05F4EF5A0C2A0C2B3
:10046800A1D2A2900001C00712053DC2A2900001CE
:1004780012053DD007E5A0540FFEEFC454F04EF529
:10048800A0D2A290000112053DC2A290000A020566
:100498003D90001412053D75820212045875822A97
:1004A80012045875820612045875820F1204587582
:1004B800820C020458AF82E5A0540FFE74F05F4E20
:1004C800F5A0D2A0C2A1D2A2900001C00712053D9A
:1004D800C2A290000112053DD007E5A0540FFEEF1F
:1004E800C454F04EF5A0D2A290000112053DC2A25C
:1004F80090000A02053DAD82AE83AFF07B007C0020
:10050800EB2DF8EC3EF98F02888289838AF0120C71
:10051800E1FA60208A82C007C006C005C004C00393
:100528001204BDD003D004D005D006D0070BBB0001
:10053800CF0C80CC22AE82AF837C007D00C3EC9EC2
:10054800ED9F50147A407B001ABAFF011BEA4B70EA
:10055800F70CBC00E80D80E522D291D290900005FE
:1005680012053DC29190000512053DC29022C2912C
:10057800D29090000512053DD29190000502053DEC
:10058800AF827E008F05530580ED24FF9291D290B3
:10059800900005C007C00612053DC29090000512E4
:1005A800053DD006D0078F05ED2DFF0EBE08004093
:1005B800D3D291D29090000512053DC290900005CB
:1005C80002053DAF827E00D2917D008E04EC2CFCAA
:1005D800D290900005C007C005C00412053DD004A4
:1005E800D005A291E4334CFEC290900005C006C02D
:1005F8000512053DD005D006D0070DBD080040CB3B
:10060800EFB401009200E43324FF9291D29090005D
:1006180005C00612053DC29090000512053DD006A2
:05062800D2918E822238
:09006800750800750900750A0015
:10062D00D2B312053DC2B322C2B320B0190508746E
:10063D0001B508028006E50824FA500D9001F41268
:10064D00062D9000012275080020B11105097401D5
:10065D00B5090D9001F412062D90000322750900C5
:10066D0020B220050A7401B50A0A9001F412062D74
:10067D00900005227414B50A0D9001F412062D9008
:0A068D00000622750A00900000220A
:03007100756900AE
:100697007E007F00EE2463F98E828F83C007C00639
:1006A700C0011209ECE582D001D006D007F70EBED3
:1006B70000010FC3EE9406EF6480948040D67569FD
:1006C7000122AF82C0071205617582D0120588D05A
:1006D700078F821205881205617582D11205887508
:1006E70082001205CBAF82C007120576D0078F8232
:1006F70022AF82C0071205617582D0120588D00724
:100707008F82120588856A82120588020576AD8276
:10071700AE83AFF0C007C006C0051205617582D071
:100727001205887582001205881205617582D1123B
:1007370005887582011205CBAC82D005D006D0079B
:100747008D828E838FF0EC120C5CAD6BAE6CAF6D4F
:10075700758201C007C006C0051205CBAC82D00563
:10076700D006D0078D828E838FF0EC120C5CAD6EB5
:10077700AE6FAF70758200C007C006C0051205CB0B
:10078700AC82D005D006D0078D828E838FF0EC1215
:100797000C5C020576756B61756C00756D40756E46
:1007A70062756F0075704090006075F04002071524
:1007B700AE627F0074305EFC7D008C0BEDC4C50B10
:1007C700C4540F650BC50B540FC50B650BC50B3018
:1007D700E30244F0F50C90000AC007C006120C773C
:1007E700AC82AD83D006D00753060F7F00EE2CF501
:1007F7000BEF3DF50C90003C120C77AE82AF83AC4B
:10080700617D0074705CFA7B008A0BEBC4C50BC476
:10081700540F650BC50B540FC50B650BC50B30E3A8
:100827000244F0F50C90000AC007C006C005C004DA
:10083700120C77AA82AB83D004D005D006D0075319
:10084700040F7D00EC2AFAED3BFBEA2EF582EB3F25
:10085700F583750B0F8D0C020D33858210AC0DAD32
:100867000EAE0FAA0C530230E4C4CAC4540F6ACAAE
:10087700540FCA6ACA30E30244F074302A8C828D5E
:10088700838EF0120C5C74012CF9E43DFA8E03A8F8
:100897000C740F58243089828A838BF0120C5C7495
:1008A700022CF9E43DFA8E0389828A838BF0743A2D
:1008B700120C5C74032CF9E43DFA8E03A80B530069
:1008C70070E4C4C8C4540F68C8540FC868C830E37C
:1008D7000244F074302889828A838BF0120C5C748E
:1008E700042CFAE43DFB8E07A90B740F5924308AB8
:1008F700828B838FF0120C5C74052CFAE43DFB8E1F
:10090700078A828B838FF0743A120C5C74062CFA78
:10091700E43DFB8E07A810530070E4C4C8C4540F0D
:1009270068C8540FC868C830E30244F07430288A96
:10093700828B838FF0120C5C74072CFAE43DFB8EDC
:1009470007A910740F5924308A828B838FF0120CF9
:100957005C74082CFCE43DFD8C828D838EF0E402F0
:100967000C5C85820D85830E85F00F85610B856292
:100977000C856082020861858272858373AD72740B
:10098700082DF582C0051206C9AC82D005E4B57101
:100997000280077401B571308006EC2404FC8028BE
:1009A700EC0303543F25E025E0FB8C027F008A829D
:1009B7008F83A3750B048F0CC005C003120CFDAE0B
:1009C70082D003D005EE2BFC75F060EC84ACF0749C
:1009D700082DF5828C6AC0041206F8D004E572244B
:1009E70063F8A60422AE82E5696007EE2463F987FF
:1009F700822274082EF5820206C91209ECAF828F93
:100A07000B750C0090000F120C7785827785837821
:100A1700AB74AC75AD76750B58750C02857782850E
:100A27007883C005C004C003120C33A982D003D059
:100A370004D0057430298B828C838DF0120C5C7482
:100A4700012BF8E43CF98D02750B3C750C0085779A
:100A570082857883C005C004C003C002C001C000FE
:100A6700120C33750B0A750C00120C94AE82D00071
:100A7700D001D002D003D004D00574302E888289EB
:100A8700838AF0120C5C74022BFAE43CFE8D078A11
:100A9700828E838FF0743A120C5C74032BFAE43C59
:100AA700FE8D07750B3C750C00857782857883C0B2
:100AB70007C006C005C004C003C002120C94750B22
:100AC7000A750C00120C33A882D002D003D004D0D0
:100AD70005D006D0077430288A828E838FF0120CD7
:100AE7005C74042BFAE43CFE8D07750B0A750C0049
:100AF700857782857883C007C006C005C004C00318
:100B0700C002120C94A882D002D003D004D005D022
:100B170006D0077430288A828E838FF0120C5C749B
:100B2700052BFBE43CFC8B828C838DF0E4020C5C90
:100B370012079CE562540FFFAD62530530E4C4CD44
:100B4700C4540F6DCD540FCD6DCD30E30244F0ED9D
:100B570075F00AA42FFD7F008D828F83A3750B1874
:100B67008F0C120CFDAE827F00750B0A8F0C8E82E4
:100B77008F83C007C006120D33AC82D006D007ECB6
:100B8700C454F0FC750B0A750C008E828F83C00469
:100B9700120CFDAE82D004E56254C0FF74305C4293
:100BA70007740F5E4FF56A7582020206F812079CFA
:100BB700E561540FFFAD61530570E4C4CDC4540F14
:100BC7006DCD540FCD6DCD30E30244F0ED75F00AD5
:100BD700A42FFD7F008D828F83A3750B3C8F0C1292
:100BE7000CFDAE827F00750B0A8F0C8E828F83C03F
:100BF70007C006120D33AC82D006D007ECC454F000
:100C0700FC750B0A750C008E828F83C004120CFDD5
:100C1700AE82D004530470740F5E4CF56A7582017E
:100C27000206F8756A007582000206F87A10E4FB7E
:100C3700FCE58225E0F582E58333F583EB33FBECB6
:100C470033FCEB950BF5F0EC950C4006FCABF04351
:050C57008201DADD223C
:06003500E478FFF6D8FD9F
:100013007900E94400601B7A00900D79780175A09E
:1000230000E493F2A308B8000205A0D9F4DAF2754C
:02003300A0FF2C
:100C5C0020F71130F6138883A88220F509F6A883B3
:100C6C007583002280FEF280F5F022E582850BF080
:100C7C00A4C582C0F0850CF0A4D0F025F0C5838506
:100C8C000BF0A42583F58322E50B450C60467A0115
:100C9C00E50B25E0F50BE50C334012F50CE58295E0
:100CAC000BE583950C40030A80E6C3E50C13F50CA9
:100CBC00E50B13F50BC3E582950BF5F0E583950C6D
:100CCC004005F58385F082C3E50C13F50CE50B1399
:050CDC00F50BDAE12236
:10003B007800E84400600A790175A000E4F309D860
:10004B00FC7800E84400600C7900900001E4F0A318
:04005B00D8FCD9FAFA
:0D000600758178120D6BE582600302000326
:100CE10020F71430F6148883A88220F507E6A8833C
:100CF10075830022E280F7E49322E022C2D5E583E6
:100D010030E70DD2D5E4C39582F582E49583F5836E
:100D1100E50C30E70BE4C3950BF50BE4950CF50CF2
:100D2100120C9430D50BE4C39582F582E49583F5DA
:100D31008322C2D5E58330E70DD2D5E4C39582F590
:100D410082E49583F583E50C30E70DB2D5E4C395D4
:100D51000BF50BE4950CF50C120C3330D50BE4C3F9
:0E0D61009582F582E49583F583227582002247
:00000001FF
